:020000040800F2
:10000000F0FF012081A40508E9A40508E9D2000851
:10001000E9A40508E9A40508E9A405080000000012
:10002000000000000000000000000000E9A4050836
:10003000E9A4050800000000E9A4050819AB0008C0
:10004000E9A40508E9A40508E9A40508E9A4050848
:10005000E9A40508E9A40508A57A0008AD7A000816
:10006000B57A0008BD7A0008C57A000899780008BA
:10007000AD780008C1780008D5780008E978000854
:10008000FD78000811790008E9A40508E9A405082D
:100090001906050851D60008E9A40508CD7A00081C
:1000A0007D930008919200088D93000881920008CA
:1000B000B9920008C9920008D99200084177000857
:1000C0003D7700084977000845770008E9A405084E
:1000D000E9A4050805C4040811C404081DC40408E3
:1000E000D57A0008E9A40508E9A40508E9A40508EB
:1000F0006D930008E9A405085D930008E9A40508CC
:10010000E9A40508E9A40508E9920008E9A405089E
:1001100029C4040835C40408F9920008BD1505086F
:10012000397900084D79000861790008757900086F
:1001300089790008E9A40508E9A40508E9A40508E7
:10014000E9A40508E9A40508E9A40508E9A4050847
:10015000E9A40508E9A40508E9A40508E9A4050837
:10016000E9A40508E9A40508E9A40508E9A4050827
:10017000E9A40508E9A40508E9A40508E9A4050817
:100180009D930008E9A405085977000855770008F1
:10019000E9A405080000000059D60008E9A40508F4
:1001A00061D60008E9A40508E9A4050841C40408CB
:1001B000517700084D770008E9A40508E9A405086F
:1001C000257900089D790008B1790008C5790008F3
:0801D000E9A40508E9A40508F3
:0801D800389805000100000049
:10600000074BD0F8CC105B68D0F8D8205B1A9A42C6
:10601000B8BFC0F8D830012380F8043100207047A1
:10602000001000E0027A0B4B0168134410B413F81F
:10603000013CCC5824F00104CC50CA181368DB078B
:10604000FCD4027D5DF8044B0223934043F00C0323
:106050004B607047745E06084368C26C10B49A6166
:10606000EFF31182502383F312884168046C0B68AC
:1060700023EA0403846C2343D2B20B6082F31188B9
:10608000436981681A68096822F001021A60D0E940
:1060900008421C605A60D0E90A429C60DA60B0F89D
:1060A0006420CA6200235DF8044B0377704700BF89
:1060B000002A4FEA014C30B503460ABFE6468E4639
:1060C0008C4600F1C005002419689A6841EA0C0169
:1060D00042EA0E029A60C3E900140C33AB42F3D1DA
:1060E000D0F8C030C0F8C44043EA0E03C0F8C03056
:1060F000C0F8C84030BD00BFC3695969B3F810C0CB
:106100000A6830B49C6822F0010224680A60E268E0
:1061100022EA0C02E260046890F814C020680822A9
:1061200002FA0CF202403AD123480578022000FA24
:106130000CF06060002D30D0187F012830D0D3F8EB
:10614000D8200132C3F8D820EFF31181502282F316
:10615000128858681C6C026822EA04025C6C2243B4
:10616000C9B2026081F31188D3E90C405A69996879
:10617000096814605060D3E90E409460D060012437
:10618000B3F89C00C8621C7710682043106083F845
:10619000D540CA681B8A1343CB6030BC7047FEE70A
:1061A00083F8D520D3F8DC000A68013022F0010220
:1061B000C3F8DC000A60F0E7281A002010B40C4C89
:1061C0006368002B11DD002004F1080C0146DCF8A7
:1061D000943003F1C00259600C339342FBD16368E1
:1061E000013083420CF1E40CF1DC5DF8044B7047A4
:1061F000281A0020704700BF024B03EB401393F8AE
:10620000B5037047281A0020F8B5C3693F4C04EB6A
:1062100083030422D3F8B804066C436C3168076822
:1062200003F01F039A4011423D681AD015F0040F85
:1062300017D03B689B0603D43B6823F004033B6004
:10624000036B726003B19847B4F8D8340C2B40D874
:10625000DFE803F0463F3F3F543F3F3F393F3F3F7A
:106260004D0002229A40114215D015F0020F12D0B3
:106270003B68990606D43B6823F00A033B60012380
:1062800080F82530C36A7260002180F82410002B4A
:10629000DAD09847D8E708229A400A42D4D02A0791
:1062A000D2D53A6822F00E023A60012202FA03F3D4
:1062B0007360436BC263002180F8241080F82520AE
:1062C000002BC0D1C0E7D4F89824D36823F400632E
:1062D000D3600122002384F8D52484F8DA34F8BD91
:1062E000D4F89824D36823F40073D360F1E7D4F88A
:1062F0009824D36823F48053D360EAE7D4F8982431
:10630000D36823F48063D360E3E700BF281A00203A
:10631000426A806A131A58425841704790F84F38C1
:1063200030B53BB990F84D1890F84E380124DAB2E8
:10633000914200D830BDB0F8565804FA03F22A430F
:10634000A0F856280133F2E70379024613F0010062
:1063500005D0D369D068116A01385B1A18407047BC
:1063600010B50379DB07044601D4002010BDFFF708
:10637000EBFF0028F9D0236A6269D05C236AE268E7
:106380000133B3FBF2F102FB1133C0B22362EDE73C
:1063900003799B070AD5436A8269D154436A02692B
:1063A0000133B3FBF2F102FB1133436270477047D4
:1063B000017170470379024613F0020007D0536A57
:1063C0001069916A01385B1A0340DBB2C01A70474A
:1063D0003D4BD3F804358BB93C4A4FF4A8700223E7
:1063E0002A214010C2F8EC04C2F8DC34C2F8E034D0
:1063F000C2F8E434C2F8E814012070473449334A43
:10640000A1FB03139B0C10B4A3F108010324C2F8F1
:10641000DC44132927D8DFE801F046262626262665
:10642000262646262626262626264626310A294BB5
:10643000294903EB40031B8A5B00A3F5AB7381FB87
:106440000301DB17C3EBA1035B00263303EBC3009F
:1064500003210224B0F50C7FC2F8E044C2F8E41432
:10646000C2F8E83403DB00205DF8044B70474010AD
:10647000C2F8EC045DF8044B01207047154B174936
:1064800003EB40031B895B00A3F5A97381FB0301A8
:10649000DB17C3EBE1035B001A3303EB430003EBB1
:1064A00080000221D5E70B4C34F810004000C3F304
:1064B000C401B0F5A87344BF6FF4A073C3181B11D7
:1064C0005B002A33D800C4E700200040281A0020CF
:1064D00083DE1B4340D70508398EE3384FECC44EAA
:1064E00007280AD8064B4FF49A7202FB0033B3F820
:1064F000F004B0FA80F0400970470020704700BFF8
:10650000281A0020072807D8044B4FF49A7202FB80
:106510000033012283F8F224704700BF281A0020BC
:1065200010B584464FEA810E102312F4004F14BFB9
:106530000E2407245200013BCCF8004092B2F444F0
:10654000F3D100EB81128C01035142F8213012206B
:1065500010BD00BF10B584464FEA810E0424130B12
:1065600003EB430318331201013CCCF8003092B224
:10657000F444F4D100EB01130A01845043F82140A4
:10658000062010BD704700BF704700BF034B00EBF3
:10659000400003EBC00393F8A10E7047281A0020B7
:1065A000064B93F8502F824283BF00EB400003EB71
:1065B000C003D3F8A40E0020704700BF281A0020A3
:1065C000072808D8044B03EB401393F8B42312B107
:1065D000012283F89A237047281A0020072808D838
:1065E000054B03EB4013B3F89803B0FA80F0400971
:1065F00070470020704700BF281A0020054B93F811
:10660000502F824286BF03EB4013D3F8A40300202F
:10661000704700BF281A00202DE9F04F4A4D4FF473
:10662000987A0AFB005A41F2690E41F268031AF89F
:106630000E201AF80330DAF8549F9A4283B073D0D0
:10664000424B4FF4547202FB003800EBC003D644B7
:1066500000EB4307D9F8C46016F4001164D19EF82A
:106660000030FA1805EB0214C6F3014605EB0212DE
:1066700094F8754FD2F8682F06EBC600DBB208EB32
:10668000C00C002C53D022F0604242F0804248F807
:106690003020FA1805EB02149FED297B94F8740F53
:1066A0000004CCF8040094F8744F8DED007B24B303
:1066B00005EB0212012C92F86C2F00921BD024489B
:1066C0003B4400EB0310012118300B4603F0FC02A1
:1066D00008326A4410F801BF03F00303DB000BFA31
:1066E00003FB52F8083C01314BEA030342F8083C33
:1066F000CBB2A342EAD3DDE900140123B340CCF8C6
:106700000810CCF80C40C9F8CC309EF800300133AA
:1067100003F00F0341F268018EF800309EF800206C
:106720001AF801309A4295D103B0BDE8F08F094CB8
:1067300004EA824248F83020ABE700BFAFF30080A4
:106740000000000000000000281A002078A6004089
:106750007C2900200000FC1F2DE9F04FDFF8FCB081
:106760004FF4987909FB00B985B0D9F8545F2C6DC6
:10677000E607074611D462070AD504232B654FF4B8
:10678000987303FB07B3D3F8642F0132C3F8642F67
:1067900023064FD405B0BDE8F08F01232B65D5F853
:1067A00090301807E7D02C4E01944FF4547303FB3C
:1067B0000766D5F89030C3F3012A0AEBCA0206EB4C
:1067C000C20356F832005A689968D3F80CE010F00A
:1067D0008048C2F3034214BF20F06040C0F38A40F7
:1067E000082A134628BF08239AB100240DF1070C8C
:1067F0002246009502F00302032C8CBF75460D461D
:10680000D2000134D540E2B293420CF8015FF1D8D6
:10681000009DD9F8604FC5F894A02CB1B8F10001E3
:1068200018BF012102AAA047D5F890301907C0D19E
:10683000019CA0E74FF4987303FB07BB41F2700281
:1068400080232B655BF80230384601334BF8023069
:1068500005B0BDE8F04FDFE6B0A40040281A0020E4
:106860000A4B93F8EC1181B101EB41010023084878
:1068700010B449001C4650F82320063302B11460BE
:106880008B42F8D15DF8044B70477047202B0020F5
:10689000B82800200A4B93F8EC1181B101EB4101BB
:1068A0000023084810B449001C4650F82320063342
:1068B00002B114608B42F8D15DF8044B7047704709
:1068C000202B0020B8280020204B1B78002B3BD128
:1068D0002DE9F0411E4C94F8EC219AB31D4A1E4E4E
:1068E00050274FF02C0E1D4607E094F8EC1152F89B
:1068F000180B01338B42056024DA117C0029F4D097
:106900005168880AA0F5801006EB000854284FF063
:10691000FE0C98BF98F818C0EFF3118087F3128827
:10692000D1F824800EFB0C4C08F10108CCF8188239
:10693000D1F814C04CF0010CC0B2C1F814C080F3FF
:106940001188D2E7BDE8F081704700BF0000002049
:10695000202B0020B828002040D7050800EE100AA0
:10696000B8EE400A704700BFBCEEC00A10EE103A05
:1069700098B2704730B5124D95F82C44ECB105F53E
:106980008665AC464FF0000E05E00EF1010EA645FF
:106990000CF1100C0FD0BCF808009042F5D19CF817
:1069A0000A009842F1D105EB0E10D0E90023012036
:1069B000C1E9002330BD002030BD204630BD00BFFE
:1069C000202B002070B5104E96F82C44DCB1B1F8A5
:1069D00016E006F58663002204E00132A24203F1CC
:1069E000100310D0B3F808C0F445F6D19D7A91F8A1
:1069F00018C06545F1D106EB0216D6F83C3413B148
:106A0000BDE87040184770BD202B002070B5154CB4
:106A100094F8B0C494F8B1640CF1010505F01F05B9
:106A2000AE421DD05FFA8CFC04EB0C16082B9E4680
:106A300028BF4FF0080EC6F8B40486F8C11486F8D3
:106A4000C0E45BB1013A06F2B74100230133DBB287
:106A500012F8010F01F8010F9E45F7D884F8B054E1
:106A600070BD00BF202B002007281AD8DFED0D7A5B
:106A70009FED0D7A0D4BB4EEE70AF1EE10FA88BFE8
:106A8000B0EE670AB4EEC70AF1EE10FAB8BFB0EE86
:106A9000470ABDEEC00A03EB400310EE102AA3F82C
:106AA000B426704700F8FF4500000000202B0020AE
:106AB0000120704701207047B0F5FA6FA8BF4FF46E
:106AC000FA60B0F57A7FB8BF4FF47A7007EE900A9B
:106AD0009FED057A9FED050AF8EE677A77EEC77AA3
:106AE00027EE800A704700BF00007A44560E03412B
:106AF00091F91B20CB7E002A0CDD07495A0901EBD6
:106B0000820103F01F02D1F8C4060123934003431E
:106B1000C1F8C436704700BF202B00200E2809D8CA
:106B2000DFE800F01515151515151515150A0C0ECD
:106B300010121400402070470C207047102070473E
:106B4000142070471820704720207047302070476D
:106B50002DE9F043456A35B94162BDE8F083CEF8CE
:106B600000100B60F9E74E6826F0604CC6F38A47C8
:106B7000C6F3807817EA260738BF6746AE462B462D
:106B80005C6894EA060F24F060420CD5002C1EDAF3
:106B9000920CBA4201D0BA420FD99D42DFD10D60AA
:106BA000DAE71346ECE7944505D104F08049C4F3D5
:106BB0008074444507D19445EFD31A689E46002A55
:106BC000EFD11960C9E7B9F1000FF6D0E5E7BA4295
:106BD000F3D0E0E7164AD0F8C8305268D0F8C010B9
:106BE00010B5044673B1501A83420BDC94F8B830E8
:106BF000C4F8C020012B10D0D4F8BC300133C4F845
:106C0000BC3010BDD4F8CC30C4F8C0200B44C4F85C
:106C1000C43094F8B830012BEED104F1D001201D1E
:106C200044F0C0FBD4F8BC300133C4F8BC3010BD14
:106C3000001000E0F0B5836993F8C420012A8BB0FE
:106C4000054633D0023A012A2DD893F83421D96F62
:106C5000234C62F07F030B708669D6F880305F1C8E
:106C60000FCCEC46ACE80F00F36FCDE900370FCC4A
:106C7000ACE80F0094E803008CE80300694606F1D5
:106C8000100044F08FFBA9690A69136A002BFCD13C
:106C9000D1F880305A8852BAEA819A8852BA2A8248
:106CA000DB885BBA6B8201200BB0F0BD93F8342116
:106CB00093F83701D3F88010131A5B100133DBB25D
:106CC00001EB430231F813305BBAEB8153885BBAB6
:106CD0002B82938801205BBA6B820BB0F0BD00BFA2
:106CE000B0D70508F0B590F8C430D0F88060012B1B
:106CF0008BB0044648D032D9023B012B2CD890F8F7
:106D00003531C26F4F4D63F07F031370D0F8803080
:106D10005F1C0FCDEC46ACE80F00E36FCDE9003708
:106D20000FCDACE80F0095E803008CE8030069463E
:106D300004F1100044F036FB2269136A002BFCD1E9
:106D400073885BBAA4F8B030B3885BBAA4F8B230E9
:106D5000F3885BBAA4F8B43001200BB0F0BDC36F68
:106D60004FF0FF321A605A609A60DA60D0F8C8308B
:106D70000522B3F57A7FC0F8D82038D8032380F8ED
:106D8000C43001200BB0F0BD90F8371190F83531C8
:106D900090F83621D0ED2E6AD0ED2F7A5B1A5B1079
:106DA0000133DBB2521A36F8131006EB430349BA2B
:106DB000A0F8B010598849BAA0F8B2109B885210B8
:106DC0000132D2B25BBAA0F8B43036F81230DBBA76
:106DD00007EE103AB8EEC77AE7EE267AFDEEE77ACC
:106DE00017EE903AA0F8B63001200BB0F0BD036961
:106DF0001A7B1AB35B690BB390F87830F3B190F853
:106E00003731C26FC4F8840063F07F03137090F8C9
:106E1000371190F83531D0F880200B48C4F8EC00D9
:106E20005B1A07330121C4F8E430E36F84F8E810FB
:106E30000A44C4E9373284F8C4108DE7022384F889
:106E4000C43089E7B0D7050801600008F8B50C4BDD
:106E50001D685A69154005405D617DB1094F0126E5
:106E6000B5FA85F4C4F11F0407EB840306FA04F4B1
:106E7000D3F8D40603689847A543F1D1F8BD00BF05
:106E800000040140202B00202DE9F8430269C3686B
:106E900012EA030828D005460E464FF00047B8FA1C
:106EA00088F327FA03F2D2431B3B2A6108EA02085F
:106EB000042B16D8DFE803F03B30251A0300B36A31
:106EC000002B3FD003F1FF3900231FFA89F9B36289
:106ED000746A34B123682046494698476468002C98
:106EE000F8D1B8F1000FDAD1BDE8F8837068002856
:106EF000F7D0696B036889B29847B8F1000FCED11B
:106F0000F2E7B0680028ECD0A96B036889B2984713
:106F1000B8F1000FC3D1E7E7F0680028E1D0E96BD2
:106F2000036889B29847B8F1000FB8D1DCE730693F
:106F30000028D6D0296C036889B29847B8F1000FB1
:106F4000ADD1D1E7EB6A1FFA83F9C1E72DE9F0472C
:106F50000768D7E90415D7F80480E8610A7D0E6850
:106F60002C68022303FA02F242F00C0272602A7DBE
:106F7000934043F00C036360097A194BBA695818BF
:106F800010F8019C56F809C02CF0010C46F809C015
:106F900095F808A05344304613F8015C635923F078
:106FA00001036351635943F00203635150F07CFACB
:106FB000FA695146204650F077FA56F8093043F006
:106FC000010346F80930635943F001036351D8F8CF
:106FD000043043F00303C8F80430BDE8F08700BF75
:106FE000745E06082DE9F043204C6568002D33DD02
:106FF000002304F108021846E4269846012706FB00
:10700000034C01339CF8DD1001F0FF0E59B9AB427F
:1070100002F1E402F3D120B1154B93F81427542A5E
:107020001DD0BDE8F0839168B2F810907046D1F899
:1070300000E0DEF80C1021EA0901CEF80C10D2F8BD
:1070400014E0DEF8001021F00101CEF800108CF8F9
:10705000DD8082F8D670DAE70020BDE8F083B3F86F
:107060001C270132A3F81C27BDE8F083281A002052
:10707000202B0020F8B5314D05EB401393F8B433C5
:1070800003B9F8BD2E4B93F828E793F829279645C6
:107090004FEA40140CD002EB420C03EBCC0C9CF8F2
:1070A0002C67771E012F4FEA420C3AD9032E33D0BA
:1070B000244B2C4403EB4010A4F8981311F032FD3C
:1070C0002B78D4F8B023D4F89C138BB1D2F8943039
:1070D00001248C4003F1C001420010F4004F90B233
:1070E00002D15A6822435A600C338B42F4D1F8BD66
:1070F000D2F89430012401F11002944003F1C00150
:10710000420010F4004F90B202D15A6822435A60F4
:107110000C338B42F4D1F8BD561C06F003067645BD
:10712000C6D0944403EBCC03034493F839170029E9
:10713000BED02B19012283F89A23B9E7281A002020
:10714000202B0020C01D002070B5384C4FF49A73DE
:1071500003FB004393F8FF3403B970BD344D95F839
:1071600028C795F829379C450ED003EB430205EB61
:10717000C20292F82CE70EF1FF36012E4FEA4302CD
:1071800031D9BEF1030F29D04FF49A7303FB00F0FD
:10719000284B04441844A4F8F01411F0C3FC95F8EB
:1071A0009017D5F88C37024669BB0121D4F8200628
:1071B0009847D4F81C56B4F8FC34D4F81826B5F81F
:1071C000B41019435368A5F8B4106FF30F030343C9
:1071D0005360136843F00103136070BD5E1C06F03A
:1071E00003066645D0D01A4405EBC202024492F869
:1071F00039170029C8D04FF49A7303FB00430122CA
:1072000083F8F224C0E7D4F8F814D4F81C064979BE
:10721000D0F8B00001F0FC01084404219847D4F8EC
:107220001C368000A3F8AC0070BD00BF281A0020F7
:10723000202B0020181F002086E700BF10B5044651
:1072400054F0CAFB81B22046BDE8104012E700BFEF
:1072500010B5044654F0C0FB81B22046BDE8104092
:1072600072E700BF38B50B4D00EB400005F56963D0
:1072700003EBC00393ED027AD3ED037AE7EE007AD5
:10728000C4002544B0EE670A54F0A6FBD5F8903E42
:10729000186038BD281A00209FED067ADFED067AC7
:1072A000E0EE077A08B5B0EE670A54F095FB80B2BD
:1072B00008BD00BFD007FA3D00007A4470B5274CE6
:1072C00094F8282794F829379A4242D194F8542DFB
:1072D0005AB302EB4201224B94F89007C2EBC10C67
:1072E00003EBCC0CD4F8942708B31E4D1E4C40F28F
:1072F0000D3E00E01A68D3F8A810B3F8AC004E6851
:107300002E4030434860086840F001000860D2F821
:10731000DC13214041EA0E01C2F8DC13D168B83316
:1073200041F480716345D160E4D170BD1A68116881
:107330009C8821F080011160D4625062B3F8B410CF
:10734000D468B83321436345D16023F8040CEDD1F0
:1073500070BD51F0D1FD0028B8D170BD202B0020A8
:10736000B43200200000FFFFE0E0FFFFF8B5A0F618
:1073700068042379DB0725D5657994F84C3805F046
:1073800001073D46FBB1D4F848341A68D36A5B085C
:10739000536294F8503823B1B4F85A380133A4F842
:1073A0005A38606C85F001014DF032F8012384F801
:1073B0004F38002384F84D3884F84E38A4F85638F6
:1073C00084F84C38F8BD94F84F68012E04BF94F847
:1073D0004D3884F84E382046FEF7A0FF4EB9012301
:1073E00084F84F3887EA0301606CBDE8F8404DF03F
:1073F0000FB8002384F84F383946F5E770B5094CCB
:1074000005460726013E00D170BD94F9000018F032
:107410000BFE031E04DBEA1861789171A278EA542E
:107420000434EFE7D8D7050848B182880449B2FA96
:1074300082F208684FF00043D34003430B6070476B
:107440000004014000207047704700BF036823F02C
:10745000020382B00360036823F00403036003683F
:1074600023F040030360036823F0200303600368F4
:1074700023F010030360036823F080030360836933
:107480009B0603D5C36943F02003C36183699A0750
:1074900044BF002383628369DB0758BF01234FF099
:1074A000000258BF83614260036823F00103036058
:1074B0000192019B3F2B06DC00BF019B013301932E
:1074C000019B3F2BF8DD0368084A43F0010303608A
:1074D0004FF0010C002381F800C04B70B2F8563D0C
:1074E00063449BB2A2F8563D02B07047202B0020A7
:1074F00070B42C216D4C00FB01F162180346D2F8E8
:10750000582D50680268D5060BD58269D20608D579
:10751000C369214443F0100370BCC36101F5576196
:1075200094E7026896071ED5826995071BD52C2221
:1075300002FB034292F8751D21B192F8741D0029D7
:1075400040F095802C2202FB034393F8742D22B166
:1075500093F8753D002B40F08880036823F0020308
:1075600070BC036070470268510724D40268560655
:107570003AD58269550637D52C2202FB034393F88E
:10758000762D002A71D093F8721D494C93F8742D12
:10759000436823400B4343EA024343F0024343F46E
:1075A00010534360036823F002030360036843F051
:1075B0000403036059E082695207D7D52C2202FBED
:1075C000034292F8761D19B192F8741D00295DD11D
:1075D0002C2202FB034393F8743D002B45D1036832
:1075E00023F00403036040E00268910625D5826918
:1075F000920622D5C26942F02002C261026822F0DE
:1076000002020260026822F004020260026822F0B4
:1076100040020260026822F020020260026822F04A
:107620001002026002682C2101FB034322F0800259
:107630000021026083F8711D17E0036823F0020344
:107640000360036823F004030360036823F040032E
:107650000360036823F020030360036823F0100332
:107660000360036823F08003036070BC7047D2F8A6
:10767000781D4D1CC2F8785D0978C9B2816292F814
:10768000741D0139C9B282F8741D5BE7416AD2F8F2
:107690007C5DC9B26E1CC2F87C6D297092F8741DB5
:1076A0000139C9B282F8741D92E700BF202B002077
:1076B000008000FC10B41F4C2C2303FB0043014648
:1076C000D3F8582D5068026812062AD58269D2056F
:1076D00006D5C26942F48072C261012283F8702D1E
:1076E00083699A0509D5C2692C2342F4007203FB11
:1076F0000143C261012283F8702D83695B0509D5BE
:10770000C2692C2342F4806203FB0143C26101225F
:1077100083F8702D2C2303FB01F1631893F8703D5F
:1077200013B95DF8044B7047034B5DF8044B1944E3
:107730008CE600BF202B0020903800200020B9E705
:107740000020D5E60120B5E70120D1E60220B1E70F
:107750000220CDE60320ADE70320C9E610B103689F
:1077600082889A61704700BF10B1036882889A626C
:10777000704700BFD3B20F2B1FD8114B00B503F1D8
:107780006F0E02E00333734514D093F800C08445B4
:10779000F8D193F801C08C45F4D10A489B7802EBEC
:1077A000420200EB8201043000EB8200CB600B71DF
:1077B0005DF804FB00205DF804FB0020704700BF6B
:1077C000F0D705080000002010B40C4C002304F68C
:1077D000086C01E0152B0CD003EB430201331CF8BD
:1077E00002108142F6D1144494F90A0E5DF8044B5C
:1077F00070474FF0FF305DF8044B7047202B00209E
:1078000030B5114C002304F5907C02E001331F2BAE
:1078100018D05CF833508542F8D10CEBC30EDD0074
:107820009EF804E08E45F1D1084802EB42022C4458
:1078300000EB820394F82511D960043000EB82003C
:10784000197130BD002030BD40D705080000002070
:10785000F0B110B504460F4894F804E0002300F698
:10786000086C01E0152B11D003EB430201331CF827
:1078700002107145F6D18318617993F90A2E2068B8
:10788000D3B20F2B02D8BDE81040B9E7002010BDDD
:1078900000207047202B00200348D0F8D4300BB1D3
:1078A000C4301847704700BF000000200348D0F8DC
:1078B00000310BB1F0301847704700BF00000020C6
:1078C0000348D0F82C3113B100F58E70184770477B
:1078D000000000200348D0F8583113B100F5A4701F
:1078E00018477047000000200348D0F8843113B1D6
:1078F00000F5BA7018477047000000200348D0F820
:10790000B03113B100F5D070184770470000002067
:107910000348D0F8DC3113B100F5E6701847704722
:10792000000000200348D0F8083213B100F5FC70C5
:1079300018477047000000200348D0F8343213B1D4
:1079400000F5097018477047000000200348D0F880
:10795000603213B100F51470184770470000002022
:107960000348D0F88C3213B100F51F7018477047E8
:10797000000000200348D0F8B83213B100F52A7097
:1079800018477047000000200348D0F8E43213B1D4
:1079900000F5357018477047000000200348D0F804
:1079A000103313B100F540701847704700000020F5
:1079B0000348D0F83C3313B100F54B7018477047BB
:1079C000000000200348D0F8683313B100F556706A
:1079D00018477047000000200F4B01382C2202FB93
:1079E00000320E4BD2F8C4200D48996C824214BF6D
:1079F00002220122114382B09964996C0A400192DB
:107A0000019A9A6C42F004029A649B6C03F004039E
:107A10000093009B02B0704700000020001002405D
:107A200000000240F0B51B4C01381E462C2303FB1E
:107A30000044194BD4F8C40083B0984214BFA1206D
:107A4000A02015460F464DF049FB144B9A6C42F0AE
:107A500004029A649B6C94F9DC00C4F8D47003F0BF
:107A600004030193C5F30112A909019BC4F8E06066
:107A700048F032FA94F9DC30002B08DB5809084949
:107A800003F01F03012202FA03F341F8203003B090
:107A9000F0BD00BF000000200000024000100240C6
:107AA00000E100E00120FFF7D1B900BF0220FFF79D
:107AB000CDB900BF0420FFF7C9B900BF0820FFF708
:107AC000C5B900BF1020FFF7C1B900BF4FF47870EF
:107AD000FFF7BCB94FF47C40FFF7B8B930B1036889
:107AE00082881B691A4214BF01200020704700BF22
:107AF00070B50D4682B016460446B8B1036803F16E
:107B000038439B0A0B4A134493F818024DF0E6FAE7
:107B1000C5F38103CDE9003605F01302A188206882
:107B2000C5F341134FF0C2FD02B070BD4FF0FF33FB
:107B3000E8E700BF40D7050800B1D9E770472DE955
:107B4000F84FDFF864832C2303FB00830746D3F848
:107B5000585DD3F8606DD3F8644D002D00F05C8162
:107B600026B196F90630002B40F0568124B194F9E5
:107B70000630002B40F050817B1CDBB216B1152281
:107B8000B271F37114B11622A271E3714FF02C0996
:107B900009FB07F908EB090A95F828004DF09EFA51
:107BA0002146304651F08CF89AF86A3D9AF8682DD3
:107BB000002B0CBF4FF01E0B4FF03E0B59463046CA
:107BC000FFF7BAFF20469AF8692D5946FFF7B4FF30
:107BD000DAF8583DA7485C6814220021484455F063
:107BE00047FA236823F001032360A34B9C4203F56B
:107BF000DE3340F013819A6B42F400129A639A6B61
:107C000022F400129A639A689FED9C7A9FED9C5A29
:107C10002C2303FB07809B4BB0F86C8DC2F3022230
:107C20001344B0EE084A93F82022974BD3F88433DC
:107C300002F01F02D34007EE903AF8EE677A002672
:107C4000C7EE275A40F2145C07EE908A9FED8F7AB8
:107C5000F8EEE77A25EE844AC7EE274ADFED8C7A04
:107C6000B0EE007AE5EE877AA5EE875A74EEE72A41
:107C700037EE856AF7EE003AB8F5C87F06F10107DE
:107C800007EE907AD5BF4FF49672782264233223A0
:107C90001344F8EEE76A07EE903A66EEA56AB8EE8E
:107CA000E77AA2F13202C7EE267AD5BF4FF4167EEC
:107CB0004FF4827E61464FF4FA71714407EE102A48
:107CC00077EEE37AB8EEC77AFCEEE77A37EE447ADD
:107CD00017EE903AC7EE267AFCEEE77A17EE900A96
:107CE00007EE90EAB8EEE73A07EE901A23EE243A50
:107CF000F8EEE77A83EE277A37EE453A32EEC77A26
:107D0000C3EE267A77EEE37AFCEEE77A17EE901A66
:107D1000C7EE267A77EEE37AFCEEE77A17EE902A42
:107D200002F1020E0EEB010907EE909AF8EE677A67
:107D3000B0EE467AA6EEA77AF4EEC74AF1EE10FA54
:107D400000F3918043EA000E5FFA8EFEBEF10F0F42
:107D500000F28B8041EA020E1FFA8EFEBEF1FF0F89
:107D600000F283801B05000400F47F0003F07F63B2
:107D70000343484843EA067300EA01210B4392B2E9
:107D80001343226822F001022260226822F4F85292
:107D900022602361236843F001032360A36823F476
:107DA0000043A360A3686FF30A03A360236823F46E
:107DB00040132360636823F400436360236843F047
:107DC000010323600022114695F92A0048F084F847
:107DD00095F92A2095F82A30002A08DB5909012252
:107DE00003F01F0302FA03F32B4A42F8213000226A
:107DF000114695F9290048F06FF895F9292095F872
:107E00002930002A08DB5909012203F01F0302FA76
:107E100003F3214A42F82130BDE8F88F1F4A94420B
:107E200007D19A6B42F480029A639A6B22F4800223
:107E3000E8E61B4A944207D19A6B42F080429A636B
:107E40009A6B22F08042DDE6164A94427FF4DBAE64
:107E5000DA6B42F00202DA63DA6B22F00202DA63D2
:107E6000D1E63E4608E701315CE70F2FF9D1002348
:107E700087E700BF9038002000540040286B6E4E0A
:107E80000000164340D70508000000200024744974
:107E90000000704200FFFF0000E100E000580040D9
:107EA0000078004000840040202B002008B1002210
:107EB0001EE6704770B50F4C94F8506FBEB104F5D4
:107EC0006674002504E00135B54204F120040ED0AB
:107ED000237F002BF7D0E06800220028F3D0217D1B
:107EE0000135FFF705FEB54204F12004F0D1012071
:107EF00070BD00BF281A002070B590F872301D09BF
:107F0000013D052D044611D81B4E06EB450203F03A
:107F10000F03B2F8281241FA03F2D20706D590F8FF
:107F20007520012AD0B205D0012070BD94F87530BB
:107F30000120FAE7984001382E44084055F0A6FB8E
:107F400096F834320D4A034402EBC30552F833204D
:107F5000AB8810691840E8D0002394F8732084F8A7
:107F6000753002212846FFF7C3FD226E136843F0E7
:107F700008031360D8E700BF40D705086839002020
:107F800038B53A4C94F8D524B4F8D834022A13D032
:107F900094F8D524D4F89854012A04BF022284F816
:107FA000D5240C2B0CD8DFE803F0110B0B0B250BA1
:107FB0000B0B390B0B0B4D00002384F8DA3438BD62
:107FC00000236B62012384F8D53438BDD4F8BC0497
:107FD000274A284BC2624363274940F22A4305F1EE
:107FE000340248F049F800236B62EB6843F40073F5
:107FF000EB60E7E7D4F8C0041D4A1E4BC26243633E
:108000001D4940F22A4305F1380248F035F80023B3
:108010006B62EB6843F48063EB60D3E7D4F8C4048D
:10802000134A144BC2624363134940F22A4305F1D9
:108030003C0248F021F800236B62EB6843F40063D4
:10804000EB60BFE7D4F8C804094A0A4BC262436335
:10805000094940F22A4305F1400248F00DF8002397
:108060006B62EB6843F48053EB60ABE7281A0020A7
:1080700019D604080DD60408CC620020800000F157
:10808000804000F514500068704700BF800000F188
:10809000804000F514500160704700BF10B4254BBC
:1080A0002548996D254A41F0805183B09965996DB5
:1080B00001F0805101910199016841F480710160E2
:1080C000996D41F480619965996D01F48061009129
:1080D0000099D3F8901041F40041C3F89010FF24A8
:1080E000CA205321546250625162D3F89430DB00AD
:1080F00014D4134B13490022C3F80425C3F80825F0
:10810000C3F80C25C3F81025C3F81425C3F81825A7
:10811000C3F8001503B05DF8044B7047A2F5006288
:10812000084BD2F800259A42E3D103B05DF8044B26
:10813000704700BF0010024000700040002800405F
:1081400000200040316665422DE9F84FD0F82861E3
:108150008368F5B21F68534B083DA3FB05352D0915
:10816000044626F0FF08013500F1F80A00F1BC09C9
:10817000294640464FF0DAF9D4F8E8200023B2F55A
:10818000807F84F8EC301CD00ED9B2F5804F18D027
:1081900070D8B2F5806F14D0B2F5805F6FF40061D3
:1081A00014BF382304230FE0102A78D06BD8012A9B
:1081B0004ED0042A16BF6FF400616FF00801382317
:1081C00002E06FF008010423524607F1180A38460E
:1081D0005AF803C001EA0C014AF80310D4F8E8B0D9
:1081E00059464EF059FFBBF5807F2DD01DD8BBF10D
:1081F000100F51D02FD8BBF1010F02D0BBF1040FEB
:108200002CD10827DAF800303B43CAF8003010239D
:10821000C4F8C4304A46294640464FF045F9336811
:1082200043F002033360BDE8F88FBBF5804F0BD0FD
:1082300019D8BBF5806F07D0BBF5805F0ED107F171
:108240001C0A4FF40067DDE707F11C0A0827D9E78D
:108250006FF00801B8E7BBF1400FD2D00AF1380A3D
:108260004FF40067CEE7BBF5803FF7D107F1500A26
:108270000827C7E7B2F5803F14BF6FF400616FF0C5
:1082800008013823A0E7402A15BF6FF400616FF0A2
:1082900008013823002397E74FF40067B2E76FF433
:1082A000006191E7CDCCCCCC2DE9F04F0679046E7E
:1082B00016F002098DB005462ED090F87280B8F104
:1082C000000818BF4FF001084FEAC802236823F4E2
:1082D000F8732360A36823F00103A360236823F0ED
:1082E00001032360564B9C426BD0564B9C4216D0E8
:1082F000554B9C4270D0554B9C4278D0544B9C427D
:1083000017D103F5E033996B41F480119963996BB0
:1083100021F4801199630CE04A46C846D6E703F57C
:10832000E633996B41F400319963996B21F4003184
:1083300099632368D5F808A06F79DB073ED42368DA
:10834000444938021940BB0203F4805300F48060B2
:10835000034306F001060B4343EA860313432360FD
:1083600062683B0322F4405203F4005313436360FA
:10837000A36823F44073A360374BA4EB030BBBFA51
:108380008BFB03F538434FEA5B1B9C424FEA8B0B98
:1083900038D02C4B9C4267D02B4B9C4200F02F8155
:1083A0002A4B9C4200F09681294B9C4200F0598157
:1083B000E36A23F00F0343EA0B03E3620DB0BDE869
:1083C000F08F03F55843196C41F480411964196C1E
:1083D00021F480411964ACE703F5E433996B41F46F
:1083E00080219963996B21F480219963A1E703F5BA
:1083F000E233996B41F400219963996B21F40021D8
:10840000996396E7154A1649D2F8883003F00303BA
:1084100043F440338B4200F06F81B3F1031F32D03D
:1084200001398B4200F02F8148F0C6F80B4A0D4904
:1084300093689268C3F303130B44C2F3C222FAE0B9
:10844000003801400044004000480040004C00401B
:1084500000500040F369FFEF008000400010024030
:108460000200030040D70508A74AA849D2F888307F
:1084700003F00C0343F440238B4200F0EC80B3F193
:108480000C1F40F00781D2F890309A0790D54FF436
:108490000043BAF1000F8BD09D4A02EB8B02D2F859
:1084A0004C22B3FBF2F303EB5A03B3FBFAF39BB298
:1084B000E360E36A23F00F0343EA0B03E362FB0785
:1084C0000BD51EB1636843F480336360B9F1000FCC
:1084D00003D0636843F40033636095F874301BB1D4
:1084E000636843F400436360A36843F48053A3606C
:1084F000236823F000532360636823F49043636090
:10850000A3683F0723F02A03A36003D5A36843F0C1
:108510000803A360236843F001032360002E37D0D3
:10852000EF6B002F00F0C5806B6C099304F12403FE
:10853000009380230593202303934FF480530A93E1
:10854000FEB2744B083EA3FB06360023029304934D
:1085500036096B6901930136EB68089327F0FF0930
:108560000023002231464846CDE906234EF0DEFFC7
:10857000314648466A464EF097FF3B6843F0010398
:108580003B60A36843F04003A3607B689BB26B65CC
:10859000B8F1000F3FF412AF2F6C002F7ED05D4B6F
:1085A000FEB2083EA3FB0636AB6C09931023029380
:1085B00004F1280300933609802327F0FF080136D1
:1085C00005934FF480530A93314600234046CDE98A
:1085D0000333CDE90633019308934EF0A7FF6A46B3
:1085E000314640464EF060FF3B6843F002033B607B
:1085F000236843F0400323600DB0BDE8F08F424A8A
:108600004549D2F8883003F0300343F440138B42DD
:1086100021D0B3F1301F3FF436AF10398B4232D046
:1086200047F0CAFF384A3A4993689268C3F3031384
:108630000B44C2F30222114493F83C3291F82022F9
:1086400003F01F0320FA03F302F01F02D340002BB4
:108650007FF41FAFACE6136859057FF5A9AE2F4B29
:1086600017E7294A2E49D2F8883003F4407343F0C3
:1086700040738B42EFD0B3F1032F3FF404AFA1F569
:1086800080718B42CCD147F097FF0346002B7FF4DB
:1086900000AF8DE604398B42F5D0C1E7236843F083
:1086A00080032360236843F0400323600DB0BDE8DE
:1086B000F08F236843F480732360A36843F00103C1
:1086C000A360236843F020032360236843F0100372
:1086D00023605DE70C4A1349D2F8883003F0C003E9
:1086E00043F440038B42B6D0B3F1C01F3FF4CBAE8E
:1086F00040398B42C7D093E713685805AFD4E36A7B
:1087000023F00F03E36259E60010024008000C005A
:1087100040D70508CDCCCCCC200030000024F4009C
:10872000000200038000C00038B50409013C052C9C
:108730001AD80F4D05EB440200F00F03B2F82802DF
:1087400040FA03F212F0010210D0012202FA03F300
:10875000013B1840254454F099FF95F83432054AFE
:10876000034402EBC30038BD002038BD104638BDBD
:1087700040D705086839002070B5002486B0CDE9DF
:108780000144CDE903440DF1040CC0E93744C0E9CC
:108790003944C0F8EC40054600F1F00EBCE80F008B
:1087A000AEE80F00CEF8004095F80901154E05948B
:1087B000C5F8346108B906B070BDFFF7B5FF2946AA
:1087C0000646A0B12623C3800F4B41F80C3F22463A
:1087D00023464FF063F80D49B2880868B2FA82F276
:1087E0004FF00043D34003430B6006B070BD064B0F
:1087F00041F80C3F0246034606B0BDE870404FF01A
:108800004DB800BF3B43413BD56B0008000401401D
:108810002DE9F84F724E00EB400306EBC3031C6DCD
:10882000002C00F0968093F86080642106F1B0027D
:1088300001FB0022054647004046DA654CF04EFC3D
:108840004FEA5813012208F01F08013B02FA08F210
:10885000052B09D8DFE803F0ABB103B7BDA561492B
:108860008B6B23EA02038B637B1906EBC30305F1D1
:10887000010B93F85400FFF757FF5FFA8BFB80461C
:1088800018B1122380F807B083717B1906EBC3037C
:1088900093F85500FFF748FF824618B1132380F87C
:1088A00007B083717B1906EBC30393F85600FFF7FB
:1088B0003BFF814618B1142380F807B083712F4421
:1088C00006EBC706504696F858202E21FFF734F9DC
:1088D00096F8592048460E21FFF72EF996F85720B2
:1088E0002E214046FFF728F923683F4A23F0400332
:1088F000944223602FD03D4B9C4236D103F5EC339C
:108900009A6B42F480429A639A6B22F480429A6393
:10891000636843F48053636023685B0611D4236863
:1089200023F47F4323F0BF0343F4457343F0030371
:108930002360636823F4706323F0040343F4E0636B
:108940006360E36923F40063E361236843F0400359
:108950002360BDE8F88F234B1A6C42F480521A64EE
:108960001A6C22F480521A64D2E7214B9C420DD03B
:10897000204B9C42CCD103F554431A6C42F4004284
:108980001A641A6C22F400421A64C1E703F5EA3350
:108990009A6B42F400429A639A6B22F400429A6303
:1089A000B6E710490B6B23EA02030B635CE70D4942
:1089B000CB6A23EA0203CB6256E70A490B6C23EA2F
:1089C00002030B6450E70749CB6B23EA0203CB6336
:1089D0004AE704498B6A23EA02038B6244E700BF3B
:1089E000183C0020001002400030014000380040D8
:1089F000003C0040003C01402DE9F04FDFF8909230
:108A00009E4E9F4F83B082464FF00108DAF8005027
:108A10006C684C4500F049819A4B9C4200F04881BB
:108A200003F580639C4200F04681974A94420CBF54
:108A30004FF0030C4FF0FF3C2368BAF8041028896C
:108A40009AF86820009223F04003884285F8248039
:108A5000236014D0B1F5807F0B46A8BF4FF480731C
:108A6000022BB8BF0223206893FAA3F3B3FA83F36F
:108A700020F03800013B40EAC303236029819AF8C3
:108A80000CB0A97A59451ED080490CEB4C0201EB81
:108A9000C202019292F85400FFF746FE019A92F842
:108AA0005720BBF1000F40F0D98010B12E21FFF705
:108AB0001FF8226842F001022260226842F002029E
:108AC000226085F80AB0236895F80CE043F0400373
:108AD00023602B6A9A68002A00F0F2800020143389
:108AE000844653F8101C944401EA060239B16969BE
:108AF000002937D0B2F1805F34D0BA4232D053F877
:108B0000142C143302EA060122B1B1F1805F29D09E
:108B1000B94227D053F80C2C0130002AE1D1BEF124
:108B2000000F1FD0009BEBB1012802D8BCF1070F4A
:108B300010D9296ADAF8000050F048FFDAF8083056
:108B400013B11A689B889362504603B0BDE8F04F9A
:108B5000FEF7FCB900EB800082002B6A13441B7BFC
:108B6000002BE6D02B6A9B684FF0000B002B00F027
:108B70009180BBF1000F02D09BF80C302BB1DAF8DA
:108B8000083013B11A689B8893622B6A18682B6AA5
:108B900059682B6AD3F808C06368BCF1010F23F44D
:108BA0008053636014DD6246A3689B07FCD50028F0
:108BB00051D030F8023BA381A368DB07FCD5E36802
:108BC00009B121F8023B023A012AEDDC0CF0010C5C
:108BD000636843F480536360BCF1000F14D12B6AC7
:108BE0001B7B1BBB2B6A1B69002B2AD02B6ADAF874
:108BF00074001B699847012828D0022821D100233E
:108C00002B6203B0BDE8F08FA3689A07FCD500285B
:108C100031D003782373A368DB07FCD5E368002910
:108C2000DDD00B702B6A1B7B002BDBD0DAF8083011
:108C3000002BD7D01A689B8893612B6A1B69002B85
:108C4000D4D1D5F820B02B6A14332B622B6A9B68E1
:108C500003B36C688DE74FF6FF73ACE710B14E219C
:108C6000FEF746FF226822F001022260226822F00D
:108C70000202226025E7FF23CCE700BF0080FFFF50
:108C80000080012000380040003C0140183C0020DA
:108C9000003001402B6A1B6883B12B6AD3E900A125
:108CA00000222962C3E90022B0E64FF0000CC3E6BF
:108CB0004FF0010CC0E64FF0020CBDE62B62A0E7BE
:108CC000BEF1000F3FF44EAF009B002B7FF445AF89
:108CD00048E700BFF8B5C569002D5FD02C68236A4E
:108CE0001B7B002B5BD1D4E904160F680B7A41493A
:108CF000626830680B4413F801CC57F80C3023F04D
:108D0000010347F80C30377A3944022311F801CCBB
:108D100050F80C1021F0010140F80C10317D8B400F
:108D200043F00C034360536823F00203536053681D
:108D300023F001035360236A1E7B236A1B69F6B28A
:108D400093B1236A686F1B699847012845D00228B0
:108D50000AD1226A02F11403D2692AB12362236A7A
:108D6000DA691433002AF9D1236ADA6942B95869F9
:108D7000E0B199692162C3E90522BDE8F8403BE60C
:108D800094F8242014332362BAB9FEB92846FEF7BA
:108D9000DDF82868016ACB69002B09DCF8BDAB68F7
:108DA000002BA0D01A689B8893619CE72062F8BDD5
:108DB000BDE8F840143150F009BE216A286850F02F
:108DC00005FE002384F82430002EDFD0AB68002B92
:108DD000DCD01A689B889362D8E7236A2868143B22
:108DE0002362016ACB69002BBEDD143150F0EEFD29
:108DF000BAE700BF745E060808B51D20FFF794FCB3
:108E000010B190F9063053B11E20FFF78DFC10B160
:108E100090F9063003B108BD5523C38008BD552322
:108E2000C380F1E7F8B50E4C94F8507FA7B104F574
:108E30009E64C7F109070925013D0FD0A668307966
:108E4000FFF772FC94F8B810F27908B1FEF750FE03
:108E5000AF4204F59A74EFD10120F8BDAB68FFDE94
:108E6000281A0020F0B4046EEFF31183502282F32D
:108E700012880279920702D590F872203AB901223D
:108E800080F86420DBB283F31188F0BC7047056C76
:108E90002A6812F00102F5D1466A816A8E42EED04C
:108EA000866A476A816A8F421ED8876A0169826230
:108EB000C91B89B282693244002680F86460402070
:108EC0002062EA606A686FF30F020A436A602A68E8
:108ED00042F001022A60A26842F08002DBB2A26086
:108EE00083F31188F0BC7047416A826A891A426A2A
:108EF000826289B2DEE700BF10B40346C06993F80E
:108F000014C01C68016C022202FA0CF262600B6849
:108F10005DF8044B23F001030B60A3E770B5037900
:108F2000046E13F00205064604D090F87250003D1E
:108F300018BF01252368980602D5E369990659D41C
:108F4000E369DA0744BF01232362E3699B0744BF57
:108F500002232362E369580744BF04232362E369C1
:108F6000190744BF082323622368002D39D05A060D
:108F70000FD5E3695D060CD54023236296F8753062
:108F800003F0FF05002B58D0336C13B13046FFF7C8
:108F900069FF2368180618D5E369190615D5B26A62
:108FA000736A9A42236844D013F0102F18BF2368C5
:108FB000B269B36AD35CDBB2A362B36A32690133CC
:108FC000B3FBF2F102FB1133B3622368DA0607D573
:108FD000E369DB0604D5736B03B198471023236262
:108FE00070BD23F0C0032360E3695B06EDD5402329
:108FF0002362EAE7606AF36AC0B273B1316B9847E3
:10900000236823F480732360A36823F00103A36023
:10901000A36943F00803A36192E7F3697269D0542E
:10902000F369F2680133B3FBF2F102FB1133F36130
:10903000E6E723F080032360C7E796F87200FFF7A6
:1090400073FB326E1368012123F00803136086F866
:109050007510002898D02A462021FEF749FD93E795
:10906000BFF34F8F0549064BCA6802F4E062134311
:10907000CB60BFF34F8F00BFFDE700BF00ED00E006
:109080000400FA052DE9F047BFF35F8F514A002134
:109090000B46C2F894100846C2F898300133112BE1
:1090A000C2F89C10C2F8A010F6D10523C2F8943083
:1090B000BFF34F8FBFF36F8FBFF35F8F464C454EAB
:1090C000C2F894000025012721E0002851D0226831
:1090D000637AA17A94F80BE094F80CC01B0643EA7B
:1090E000017343EA4003617BC6F8985043EA8E431C
:1090F00043EA4C4343EA0143013543F00103032DA6
:10910000C6F89C2004F11004C6F8A03032D0D4F880
:109110000480207AB8F1000FD7D022680028D7D178
:1091200022F01F09A8EB090ABAF1200F38BF4FF04F
:10913000200A504653F07CFF431E07FA03F2924583
:1091400008BF1846411C07FA01F35A4202EA090215
:1091500003EB020CE04501D809E001315B005A4203
:1091600002EA090203EB020CE0450846F5D8C0B25A
:10917000AEE7FEE70523C6F89430BFF34F8FBFF389
:109180006F8FF368154C4FF6FF02134043F0052331
:10919000134A43F47A03F360D2F8943047F090F81E
:1091A000D6F8FC200F4BB0FBF4F0002142F08072A7
:1091B000C6F8FC2059601A680B4942F001021A6097
:1091C0008B680A4A43F480438B60C2F84002BDE8D2
:1091D000F08700BF00ED00E08803002040420F0050
:1091E00000100240001000E000700040183C002019
:1091F00008B572B6FFF734FF03689B0AA3F5801326
:10920000542B00D970470E4A13441B7E0B2BF9D800
:1092100010B40C4C427904EB83109208D0F844024D
:1092200002239340C26829B922EA03035DF8044B84
:10923000C360704713435DF8044BC360704700BFC1
:1092400040D70508183C002003689B0AA3F580134B
:10925000542B0FD8084A13441B7E0B2B0AD80749FE
:10926000427901EB831192080223D1F84412934012
:10927000DB430B61704700BF40D70508183C002056
:1092800001490248FDF700BE102D0020002C0140CE
:1092900010B5064C064804F5F871FDF7F5FD04F528
:1092A0005F710448BDE81040FDF7EEBD202B0020A3
:1092B000002C01400044014002494FF08040FDF77E
:1092C000E3BD00BF3C2D002001490248FDF7DCBD95
:1092D000682D00200004004001490248FDF7D4BD7C
:1092E000942D00200008004001490248FDF7CCBD44
:1092F000C02D0020000C0040F8B5164D164E2A690E
:10930000EB681A404FF00040B2FA82F320FA03F300
:10931000DB4302EA0301C2B1012A2B6101D00A46F4
:10932000F2E7D6F8F4728FB1013F0023BFB2C6F85E
:10933000F432D6F8F04234B12368204639469847D3
:109340006468002CF8D10022DCE7F8BDEF6ABFB2F8
:10935000EFE700BF00100040202B00200149024829
:10936000FDF792BD442E002000340140014902481F
:10937000FDF78ABD442E0020003401400149024817
:10938000FDF782BD702E00200040014001490248D7
:10939000FDF77ABDC82E002000480140014902486F
:1093A000FDF772BDF42E0020005001402DE9F04180
:1093B0004FF40F728CB05648564D002153F058FEB2
:1093C000554B1A6E42F400621A661A6E02F400627D
:1093D0000092009A9A6D42F001029A659A6D02F02D
:1093E00001020192019A9A6D42F002029A659A6D09
:1093F00002F002020292029A9A6D42F004029A6509
:109400009A6D02F004020392039A9A6D42F00802E8
:109410009A659A6D02F008020492049A9A6D42F0DD
:1094200010029A659A6D02F010020592059A9A6DE3
:1094300042F020029A659A6D02F020020692069A86
:109440001A6E42F400521A661A6E02F40052079223
:10945000079A1A6E42F480321A661A6E02F480324B
:109460000892089A1A6E42F400321A661A6E02F4D2
:1094700000320992099A1A6E42F480221A661A6E14
:1094800002F480220A920A9A1A6E42F480121A6634
:109490001B6E03F480130B930B9B4FF00008A5F594
:1094A0001F7605F62C2440F28B2755F82810002350
:1094B00054F83320914226D001330C2BF8D10020F0
:1094C00008F107084BF00AFEB845EED14FF000084E
:1094D00040F28B2755F82810002354F8332091428E
:1094E0000CD001330C2BF8D1002008F107084BF009
:1094F000F5FDB845EED10CB0BDE8F08106EBC30335
:1095000093F8AC0CF1E706EBC30393F8AC0CD7E788
:10951000102D0020BCD9050800100240204A214B24
:10952000904210B4D3F8843327D002F50062904201
:1095300023D002F5406290421FD002F58062904233
:109540001BD002F58062904217D002F50062904273
:1095500013D01548154A81688468C1F302210A4472
:1095600014F4E06F92F8202202F01F0223FA02F0B6
:1095700000D040005DF8044B70470B480B4A8168EF
:109580008468C1F3C2210A4414F4605F92F8202277
:1095900002F01F0223FA02F0ECD04000EAE700BF1D
:1095A000002C0140000000200010024040D70508B8
:1095B0002DE9F8430468A30AA3F58013542B51D86E
:1095C0001646474A13441D7E0B2D4BD8DFF81C91DD
:1095D000013909EB851889B2C8F850120068FFF705
:1095E0009DFFB0FBF6F00138C8F84802D8F84402F5
:1095F00009F51173AF01A04203EB851505F10401D4
:1096000069D007F1080213440022C8F84C22C8F8B8
:109610004442C3E9022298F8813203F0FF02002B92
:1096200056D009EB07050226204685F8816246F0F0
:10963000B9FE2C4A0123944285F8813235D0B4F129
:10964000804F11D0A2F5943294420DD002F5806281
:10965000944209D002F58062944205D002F594321A
:10966000944222D0BDE8F88395F88022012AF9D0EF
:1096700085F88162A1681C4A0A40A26085F881329F
:1096800085F881626368A26823F00073B94423F00F
:109690007003636022F0800201210023A26089F838
:1096A000811289F88032BDE8F88395F88022012A7A
:1096B000D8D085F88162A1680B4A0A40A26085F87B
:1096C000813285F881626368A26823F47003DBE766
:1096D00088F88022A5E7BDE8F84346F063BE00BFE6
:1096E00040D70508002C01408800CEFF183C002020
:1096F0002DE9F04FAD4FAE4EDFF8C09293B000238E
:109700000193A7F6E855AB4CAB4BD4F800A093F807
:1097100096254FEA9A23A3F58013542B00F2C880B4
:109720002B441B7E0B2B00F2C380012A16F903B0D9
:1097300000F0F580022A02D1BBF1080F34D14FF0BE
:109740000008414658460FF0CBFF10F057F890F94B
:10975000003013B1542B40F0C58108F104081FFA02
:1097600088F8B8F1100FECD1019B0021002B00F01C
:10977000A980924A0AE02B441B7E0B2B0DD8F3568E
:109780005B450DD0E4324A4500F09980906803684B
:109790009B0AA3F58013542BEDD900235B45F1D12F
:1097A000437960799842EDD11C34A742ACD1019B3A
:1097B0000133042B019309F1E409A4D1804A92F802
:1097C000503F013302F5667903934FF0010B039B81
:1097D0005B456AD0784BD9F80C6099F8102093F863
:1097E000AA350192002E60D0754AD6F800A05568BF
:1097F000B28802920AF13840002D4FEA902040F3DF
:109800009A806E4A002405E00134AC4202F1E40281
:1098100000F08E8011688142F6D1684B029DE422EF
:1098200002FB0434019B89F81030029BC9F80C60DC
:10983000B3FA83F7C7F11F034FF00302C9F80430EE
:10984000C9F81840B27186F807B0A16C206C5E00B0
:1098500001224FF0030C0CFA06FC02FA06F6314323
:10986000A16457490E7840EA0C0002FA03F3206421
:10987000D4F84CC0D4F8940099B2002E00F038818E
:1098800043EA0C03E364CAF81850FCF711FC2046C5
:109890000BF1010BFCF7E0FB40F20113BBF1090FE8
:1098A000A9F81C3009F1200991D113B0BDE8F08F5F
:1098B000013A012A7FF678AF4FF0000B3FE700290D
:1098C0007FF472AFA0683F49002205E00132102A00
:1098D00001F10C0100F037834B689842F6D152B287
:1098E00061795046FDF78CFF374A4068002304E059
:1098F000102B02F12C023FF457AF516888429C466E
:1099000003F10103F4D1314B2C2202FB0C3393F908
:10991000E430002B7FF448AFC9F8084047E7BBF1BB
:10992000010F3FF40CAF1C34A7427FF4EDAE3EE7CD
:10993000042C00F03182224AE42101FB0522116946
:109940000491002900F0DE8290604FF05401013054
:10995000C4B282F8E8101A4982F8E9406A1C4A60E9
:10996000049A5179106897680591002215499C4620
:1099700005E00132102A01F10C0100F0E4824B688D
:109980009F42F6D10599CDF818C052B2FDF738FFC5
:109990000B4BDFF83480D0E90171E42202FB053281
:1099A000C2E90771069B4146002216E028E505083A
:1099B000645E060848E40508183C0020301A0020C0
:1099C000281A002004000020C4000020000000200D
:1099D000102A01F12C013FF468AF48688742944691
:1099E00002F10102F4D187492C2202FB0C1C9CF9E4
:1099F000E420002A7FF459AFE422079302FB05F329
:109A00005A0002EBA302C2EB422202EB8242524214
:109A10007D498CF8E54002EB42008C2400EB0010FD
:109A200001EB800004FB02F201F54C7101EB4202F4
:109A3000764906931944C1E9352454228CF8E42070
:109A40003322C1F8A020049AC1F89C00C1F80CA0F0
:109A5000D2F800A06E4A5046D418FFF75FFD079B6E
:109A6000062B00F0A081072B6A496B4B6B4A18BF8D
:109A70001A466B4B18BF0B46B0FBF3F3B0FBF2F288
:109A80006248E42101FB0501013B9BB2013AA1F8C8
:109A9000A420A1F86C30A365069B03F1500100F1EE
:109AA000080319440023A4F85030E3656365504669
:109AB0004DF0A4FCDAF80030059A43F08003CAF8B0
:109AC00000300C2A22D8DFE812F0D9012100210051
:109AD0002100B60121002100210096012100210072
:109AE00021007101019B0121002B7FF442AE5BE656
:109AF000C7F12F0702FA07F343EA0C032D04E364CE
:109B00003246CAF81850FCF7D3FAC0E63F4AE423BD
:109B100003FB0523602259690A92DAF800300791A5
:109B20004FF480721092012223F001030B924FF048
:109B3000020C0A22CDE90D2CCAF800300AAA002333
:109B400050460C930F9311934DF0A6FA0799B1F577
:109B5000807F4FF000030AD040F2C981B1F5804FF9
:109B600005D000F2D681B1F5806F40F0DF81082288
:109B700004230AF11800C1580A43C250049B187903
:109B8000002840F0A181DAF8003043F00103CAF860
:109B90000030002304E0102B08F12C0800F0908125
:109BA000D8F804209742194603F10103F3D1049336
:109BB000144B2C2202FB0132D2F8C400194A904205
:109BC00014BFA120A0204BF089FA174A0F48916CCE
:109BD000049BDFF85CC041F004019164926C05992C
:109BE00002F004020C290992099A9BBF0F4A02EB6A
:109BF00041020021B2F8E81DE42202FB05021183B4
:109C000000221EE000000020C4410020281A00208D
:109C1000301A0020D0DD06004495080010552200BF
:109C200040771B00000002400010024040D70508AA
:109C300054490020824500F077810132042A00F067
:109C400085815CF832000028F4D1C2480746D0F87C
:109C50005C0D0130C7F85C0D07EBC200D200C0F804
:109C60003CAD624418469388194391802346BA4913
:109C70009022FDF7D7FEB94BE42707FB05374FF0DD
:109C80000008FD692A6842F002022A602A6842F050
:109C90000A022A60C4E91D883A6AC4F88C204FF48D
:109CA0004052C4F8902080231022E3672267D7F83F
:109CB000A020C4F88820E9B2A94AD7F80CA0069BD6
:109CC0000839A2FB01214FF40072C4F880200AF188
:109CD0001802A26603F16802A24B4FF4006C1A440A
:109CE0000909D7F89C30E36625F0FF000131C4F87C
:109CF00084C0CDE904014DF0D7FBD5F800E0C4F8ED
:109D000020E0D5F804E0C4F824E0069BD5F808E08C
:109D1000C4F828E0D5F80CE0C4F82CE0C4E92A889F
:109D200003F1A0028F4BC4F8B0801A443B6AC4F818
:109D3000C4308023C4F8B4304FF40053C4F8C830A2
:109D4000D7F8D830C4F8C0300AF1100A4FF4807345
:109D5000C4F8A0A0C4F8B830D7F8D430C4F8A43000
:109D60004FF48063C4F8BC30DDE904014DF09CFB86
:109D70002B6823636B686363AB68A363EB68E3637F
:109D80002B68D6F800A043F002032B602B6843F049
:109D90000A032B60B58845E56E4A032382F8AB358C
:109DA00013B0BDE8F08F704A704B65E66B49DAF886
:109DB0000030E42202FB051223F001034FF480512E
:109DC0005161CAF8003000230C930F931193602364
:109DD0000A934FF48073109301230B934FF0020CFE
:109DE0000A230AAA5046CDE90D3C4DF055F94FF42F
:109DF00000620423BDE65949DAF80030E42202FB90
:109E0000051223F001034FF480715161CAF800304C
:109E100000230C930F9311934FF0600E0123CDE9B3
:109E20000AE302220A23CDE90D3250460AAA109114
:109E30004DF032F99BE64949DAF80030E42202FBA2
:109E4000051210215161602223F001030A924FF4A0
:109E50008072CAF800301092002301220C930F93F5
:109E600011930B9202230A22CDE90D2350460AAA30
:109E70004DF012F900234FF400627AE63749DAF820
:109E80000030E42202FB051223F00103012151619D
:109E9000CAF8003000230C930F93119360230A93A8
:109EA0004FF4807310934FF0020C0A230AAA504615
:109EB000CDE90D3C0B914DF0EFF80822002358E658
:109EC0004FF0FF31002372E6FEF72EFC079038B109
:109ED000049B0221DA79FDF70BFE079B5422DA80FE
:109EE000DAF8443043F40043CAF844304BE6102912
:109EF00026D016D8012921D00429DED04FF40062E3
:109F0000382336E6134A022382F8AB3513B0BDE896
:109F1000F08FB1F5803F14BF4FF400620822382360
:109F200027E64029C9D0E9E7D2009AE6B1F5805F7B
:109F30004FF4006214BF382304231AE6082218E6FF
:109F40004FF4006215E600235B68FFDE00239B8868
:109F5000FFDE00BF183C0020F9600008281A00202E
:109F6000CDCCCCCC301A0020882A1100A0BB0D002B
:109F70002DE9F04FA64D95F8607D91B01FB90020F6
:109F800011B0BDE8F08F00222F2138460FF08AFC77
:109F900006460028F3D0DFF8AC8290F80590D0F8A0
:109FA00000A0A8F8D894FDF753FC0028E7D0D0E92A
:109FB00001430193002CE2D0DFF88CB20022594615
:109FC00001E0102ADBD04B689C42944601F12C0141
:109FD00002F10102F5D18F4B2C2202FB0C3C9CF9C3
:109FE000E430002BCBD12F22ACF8E4205046029372
:109FF000C8F898A4FFF792FA874A029B904280F033
:10A00000E4800293012303935046FFF787FA8349C4
:10A01000039BB0FBF3F2120AA1FB02218048029BD2
:10A02000C8F89C340A09A0FB02025208A5F8642D66
:10A0300052000909A5F8622D98F8D524C8F8A4148F
:10A040000021C8F8A814C8F8A01402F0FF01002AE3
:10A0500000F0CC800222734988F8D524504646F09F
:10A06000A1F90122384688F8D524FEF75DFBC5F832
:10A07000680D28B12F21C180F2794E21FDF738FDFE
:10A08000694A019BC5F8703D0020C5F8780DC5F8F8
:10A09000880D916CC5F86C4D41F001019164916C93
:10A0A00001F0010105910599916C41F00201916463
:10A0B000926C02F002020692069A1022C5F8742DE4
:10A0C0008022C5F87C2D4FF40072C5F8802D4FF426
:10A0D0000062C5F8842DB9F10C0F4FF40052C5F899
:10A0E0008C2D00F28680514A02EB4902B2F8047EC0
:10A0F000BA46083708EB87024D49C2F898144D4A12
:10A10000C5F8942D00205A4601E0102876D05368F7
:10A110009C42054602F12C0200F10100F5D13D4BB5
:10A120002C2202FB0532D2F8C400434A904214BFED
:10A13000A120A0204AF0D2FF3B4A916C41F00401DB
:10A140009164926C02F004020792079A002001E0E9
:10A15000102851D0DBF804309C4200F101000BF1D3
:10A160002C0BF5D108EB8708534634496022FDF7E4
:10A1700059FCD8F8980445F0EDFE034600287FF41A
:10A18000FEAEB4790E93620002F002020A92E2007F
:10A1900002F0080200230B926022CDE9082300227E
:10A1A0000023CDE90C2323484A4608A94AF064FC61
:10A1B00000287FF4E4AEA3071E48494621D546F0A7
:10A1C000DBF9B0FA80F04009DAE65046FFF7A6F96D
:10A1D0001B4900F1B77202F55852A1FB0212920D11
:10A1E000013A93B20293013303930DE788F8D41434
:10A1F00030E7824607467CE70020B3E74FF0FF35A3
:10A200008DE746F095F8B0FA80F04009B8E600BF57
:10A21000183C002000000020006CDC02598B4F012C
:10A22000ABAAAAAAC41E00200010024040D705080D
:10A2300084490020C01E002000000240096200087E
:10A24000819F5E16281A0020C400002037B590F8C0
:10A250005F38032B04462FD10023204D8DF80730A3
:10A260009DF8073094F860289A4201D803B030BDB9
:10A270009DF8073005EBC30393F8D03D8BB181F017
:10A28000010383B19DF8073005EBC303D3F8CC0D70
:10A29000FDF764FA9DF807300133DBB28DF8073023
:10A2A000DEE70B46EDE79DF8073005EBC303D3F877
:10A2B000CC0DFDF759FAEDE7D0E910039B7903F0D7
:10A2C0000103994204D003B0BDE83040FDF746BA1F
:10A2D00003B0BDE83040FDF747BA00BF183C00208E
:10A2E00038B5044600790D4650B1FEF71DFA08B1A5
:10A2F0000323C380E2792946BDE83840FDF71CBC42
:10A3000038BD10B522210446FFF7EAFF2046FEF7CC
:10A310009BFFBDE810400121FEF76EBF10B5012183
:10A320000446FFF7DDFF20460021BDE81040FEF7A0
:10A3300063BF38B510F8133CA0F6640433BB94F83F
:10A340005028002A33D1616AA36A99421ED0A36AB9
:10A35000A169581CA062CB5CA06A2169DBB25B00DA
:10A3600043F40073A4F854380A2384F852380123C4
:10A3700084F8503894F85F38884228BFA262012BD5
:10A3800001D0042B02D1606CFFF7C8FF94F84C3861
:10A39000002B6DD194F84D380133DBB2092B84F8D2
:10A3A0004D3825D12046BDE83840FBF7B7BF94F9BA
:10A3B00052586DB1B4F854184B08A4F8543801F051
:10A3C00001012046013DFFF741FF84F85258DDE7C7
:10A3D000626AA36A84F850589A42D7D194F85F38D9
:10A3E000012B01D0042BD1D1606CFFF78AFFCDE7A0
:10A3F0000A2B3DD194F84F382BB9B4F8563843F0B6
:10A400000103A4F856382379D9070AD5B4F85608B9
:10A41000820501D4C30718D4B4F85C380133A4F81A
:10A420005C38012284F84C2894F84F280023012A34
:10A4300084F84D381CD1617984F84F38606C01F094
:10A440000101BDE8384049F0E3BFE36AC0F34700CB
:10A4500013B1216B9847E4E7E3696269D054E3697B
:10A46000E2680133B3FBF2F102FB1133E361D8E799
:10A4700038BD00BF914BD3F80C25012A2DE9F041DE
:10A4800000F083828E4A8F4CD2F888308E4943F494
:10A4900070038C42C2F8883004D08C4A2046121BCC
:10A4A00052F088FD864B8A499C600A68894D42F4C7
:10A4B00080720A60D968884A4FF6FF0001400A435B
:10A4C000DA604AF0B3FA7D4BD3F80805FBF780FF5A
:10A4D000824A136803F4C063B3F5806FD2F880300A
:10A4E00023F48073C2F8803060D0744A7C4BD2F879
:10A4F0000415D3F8E874D3F8E464D3F8DC8451B1DC
:10A5000078498B68C96803F00C030C2B6CD0082BBE
:10A510006ED1744B1B68744C72498B68C96803F028
:10A520000C030C2B75D0042B77D16E490B684B684C
:10A5300023F0FE4343F080434B604AF077FA002853
:10A5400040F0BA806749D1F8943043F00103C1F874
:10A550009430D4F80C0E04E0D4F80C3E1B1A022BF5
:10A5600056D8D1F894309B07F6D5D1F8983043F0FF
:10A570000103C1F89830D4F80C0E5A4904E0D4F81D
:10A580000C3E1B1A022B43D8D1F898309A07F6D507
:10A590008B6803F00C030C2B00F0BD810B6823F0DB
:10A5A00080730B60D4F80C0E4E4952E013684F498B
:10A5B00023F4C06343F400731360D5F8843332206E
:10A5C00000FB03F3A1FB031351699B0C480503F146
:10A5D000010306D500E023B15169490503F1FF33BA
:10A5E000F9D43E4B5B6980E701F00301032990D069
:10A5F0003C493D4C0B6843F480330B60D4F80C0E9F
:10A600000B689B0388D4D4F80C3E1B1A642BF7D933
:10A61000FEE701F00301022987D032490B6843F4B9
:10A6200080730B60D4F80C0E04E0D4F80C3E1B1AB7
:10A63000022BEDD80B685A05F7D54B6823F0FE4383
:10A6400043F080434B607DE7D4F80C3E1B1A022B8D
:10A65000DED80B689B01F7D4C868254A731E0240F8
:10A6600048EA0313134343EA072343F08053CB60C4
:10A670000B681C4A43F080730B60CB6843F0807317
:10A68000CB60D4F80C1E04E0D4F80C3E5B1A022B0D
:10A69000BED813689801F7D50D4B1A68110729D455
:10A6A0001A6822F00F0242F008021A601B6803F0D9
:10A6B0000F03082B1ED0FEE7AAE700BF00200040D2
:10A6C00000ED00E000F0012000000008D8F10120BA
:10A6D00000200240000000200003FA050070004046
:10A6E000281A002000100240183C002083DE1B4383
:10A6F0000C809F01B54B1A68920140F1F580D96832
:10A70000DA68DB6801F003010329C2F303120CBF0E
:10A71000AF49B0490132B1FBF2F2AC49C3F30623B1
:10A7200002FB03F3CA68C2F3416201325200B3FB79
:10A73000F2F3A94A934206D98B688B6823F0F003A1
:10A7400043F080038B60A14B9A6842F003029A6049
:10A75000D4F80C1E41F2883004E0D4F80C2E521AC2
:10A760008242A8D89A6802F00C020C2AF5D19968A6
:10A770009A4A41F4E0619960996821F47C5141F46E
:10A78000E0619960996821F0F0019960136803F025
:10A790000F03082B00F2A9808C4C914EA36823F480
:10A7A000E063A360A36823F46053A36045F088FDD1
:10A7B000A368C3F30313334493F83C3203F01F033D
:10A7C00020FA03F7C5F884734AF030F9002840F006
:10A7D000DB80D4F88830834A834923F00303C4F82C
:10A7E0008830D4F8883023F00C03C4F88830D4F8CB
:10A7F000883023F03003C4F88830D4F8883023F050
:10A80000C003C4F88830D4F8883023F44073C4F807
:10A810008830D4F8883023F44063C4F88830D4F802
:10A82000883023F44053C4F88830D4F8883023F4B7
:10A830004043C4F88830D4F8883023F44033C4F857
:10A840008830D4F89C3023F00303C4F89C30D4F84B
:10A85000883023F0407343F00073C4F88830D4F894
:10A86000883023F04063C4F88830D4F8883023F06F
:10A87000405343F00053C4F88830D4F8883023F0B4
:10A88000404343F00043C4F88830A36B43F4807323
:10A89000A363A36B23F48073A363544B5A601A68B9
:10A8A00022F4FE4242F400521A601A6842F060023A
:10A8B0001A604A4A1160D3F80435A26802F00C020B
:10A8C000082A05D00C2A44D0424B042A18BF3B4624
:10A8D0003E4A9268C2F30312164496F83C22D340D3
:10A8E000C5F88433BDE8F081E5E6136823F00F0373
:10A8F00043F008031360D4F80C1E41F2883013684B
:10A9000003F00F03082B3FF447AFD4F80C3E5B1A5B
:10A910008342F4D9CFE6CB6803F0030188457FF486
:10A9200077AE013E03F0F002B2EB061F7FF470AE8B
:10A9300003F4FE42B2EB072F7FF46AAE03F07842D5
:10A94000B2F1805F7FF464AE13F0CC6F3FF4A4AE3D
:10A950005EE6E168E26801F003010229C2F3031236
:10A9600002F1010208BF1B4BB3FBF2F3174AD16897
:10A97000D268C2F34162C1F30621013201FB03F345
:10A980005200B3FBF2F3A3E795E6104A184C0021FE
:10A99000C3F80C15D4F80C1E136843F480731360CD
:10A9A00004E0D4F80C3E5B1A022B52D813685D0504
:10A9B000F7D55368054D43F0804353600121D4F827
:10A9C0000C0E916041F2883219E000BF0010024085
:10A9D00000127A000024F40000B4C40400200240F5
:10A9E00040D705087FBB2220040704000020004058
:10A9F000183C0020D4F80C3E1B1A934229D8AB68AF
:10AA000003F00C03042BF5D11C4B1D4AC3F884231F
:10AA10004AF00CF8E8B94FF480732B602B60D4F83F
:10AA20000C1E184B04E0D4F80C2E521A022A10D82F
:10AA30001A6812F00072F6D14FF480504FF0FF31D7
:10AA4000D8609A611962D3F8942042F40002C3F8E6
:10AA500094204FF0E02300221A615A619A6172B685
:10AA600009490A4A0B68106823F0070343F0010301
:10AA70000B6080F3088853689847FEE700000020C9
:10AA80000024F40000100240000001400000FF1FFD
:10AA9000064B9B6803F00303022B04D0032B0CBF6F
:10AAA0000320002070470120704700BF00100240C3
:10AAB00010B550B1A82808D0C02827D0D82827D052
:10AAC000F0280CBF0324002400E000240220FDF73E
:10AAD000D5FA03460120FDF7D1FA9C420AD128B1EC
:10AAE0000C4A936803F00303032B00D010BDD36816
:10AAF000DB07FBD42046FBF76BFC0028F6D0214691
:10AB00000220FDF7C3FA72B6FEF7AAFA0124DDE7C8
:10AB10000224DBE70010024010B4EFF3118210238F
:10AB200083F312880C4BD3F8101E4FF0E020013154
:10AB3000C3F8101E8169C3F8141E0024C3F8184E10
:10AB40000169D2B282F31188D3F80C2E5DF8044B60
:10AB50000132C3F80C2E7047183C002010B4EFF3FC
:10AB60001181102383F312884FF0E022C9B2946957
:10AB7000136913F4803F0D4B1EBF0120C3F8180E5C
:10AB80009469D3F8100ED3F8182E81F31188D3F8F6
:10AB9000401202444FF47A7000FB01F31B1B5DF876
:10ABA000044BB3FBF1F300FB02307047183C00206C
:10ABB000B0F1FF3F00F09B8003282DE9F0470446E9
:10ABC0000FDCDFF850A14FF02C0808FB00A8D8F8E4
:10ABD0005C7D37B11E4698F8713D914603F0FF0247
:10ABE00013B10020BDE8F087012388F8713D0D46C0
:10ABF00088F8702DFFF7B2FFC8F8800DFFF7AEFFA1
:10AC00007B68424A134043EA450343F0004343F460
:10AC1000903380467B606D00BB69980716D5C7F8F6
:10AC20002890BB695A0627D4BB69DB0656D52C236E
:10AC3000FA69374904FB03F39A4442F01002DAF848
:10AC40005C0DFA611944FCF701FCCAE7BB69D9063F
:10AC5000EDD4FFF783FF42F20F73A0EB0800984298
:10AC6000DADD2C2304FB03F39A442949DAF85C0D5E
:10AC70001944FCF7EBFBB4E77B68244A134043EA32
:10AC800006432B4343F00243089D43F410537B607B
:10AC90002E44BB6958070DD4BB69D906C7D4FFF74A
:10ACA0005DFF42F20F73A0EB08009842D9DCBB694C
:10ACB0005807F1D57B6A05F8013BB542E9D1BB697C
:10ACC0009A0616D4BB69DB06B1D4FFF747FF42F200
:10ACD0000F72A0EB08039342F1DDC2E7FFF73EFFDE
:10ACE00042F20F73A0EB080098429ADDB9E700200A
:10ACF0007047FB692C2202FB04AA43F020030022C8
:10AD0000FB6101208AF8712D6CE700BF008000FC18
:10AD100090380020202B00202DE9F04F814C83B08B
:10AD2000D4F8249E94F81C3E01910746B9F1000F17
:10AD30000BD083F00202B9F80410C2F340021201F2
:10AD400001FA02F2D9F800108A61D4F8208EB8F125
:10AD5000000F09D0B8F8042003F001031B0102FA28
:10AD600003F3D8F800209361013FFBB26E4E0093CD
:10AD70004FF0E0254FF47A7BB9F1000F08D0D9F8F5
:10AD80000010B9F804304869034218BF1B048B61F6
:10AD9000B8F1000F08D0D8F80010B8F804304869AE
:10ADA000034218BF1B048B6101200EF027FCDDF865
:10ADB00004A07368C3F30803002B40F0AB80EFF3EB
:10ADC0001183002B40F0A680D4F8107EA869D4F837
:10ADD000101E8F42F8D1D4F8141E8842F4D8D4F84B
:10ADE00040320BFB03F1091AB1FBF3F10BFB071720
:10ADF0007368C3F30803002B40F08980EFF31183DD
:10AE0000002B40F08480D4F8103EA969D4F8100ECD
:10AE10008342F8D1D4F8140E8142F4D8D4F84022F9
:10AE20000BFB02F0401AB0FBF2F00BFB0300C31B5C
:10AE3000B3F57A7FDCD3BAF1010ABAD1B9F1000FC8
:10AE400008D0D9F80010B9F804304869034218BF97
:10AE50001B048B61B8F1000F08D0D8F80010B8F8C7
:10AE600004304869034218BF1B048B6100200EF0B8
:10AE7000C5FBDDF804A07368C3F30803002B4DD1B4
:10AE8000EFF31183002B49D1D4F8107EA869D4F8D0
:10AE9000101E8F42F8D1D4F8141E8842F4D8D4F88A
:10AEA00040320BFB03F1091AB1FBF3F10BFB07175F
:10AEB0007368C3F308033BBBEFF3118323BBD4F8E0
:10AEC000103EA969D4F8100E8342F8D1D4F8140EBC
:10AED0008142F4D8D4F840220BFB02F0401AB0FBB8
:10AEE000F2F00BFB0300C31BB3F57A7FE0D3BAF19A
:10AEF000010AC0D1009B5F1EFBB2FF2B00937FF4C1
:10AF00003BAF03B0BDE8F08FFFF728FEEBE7FFF79C
:10AF100025FE8CE7FFF722FE074669E7FFF71EFED6
:10AF20000746C5E7183C002000ED00E0134B5B68C6
:10AF3000C3F3080303BBEFF31183EBB910B4104B59
:10AF40004FF0E02CD3F8102EDCF81800D3F8101EC8
:10AF50008A42F7D1D3F8141E8842F3D8D3F840427E
:10AF60004FF47A7101FB04F31B1AB3FBF4F35DF8A1
:10AF7000044B01FB02307047F0E500BF00ED00E03C
:10AF8000183C00202DE9F04FBC4B87B01B78049390
:10AF90001BB9012007B0BDE8F08FB84AB84B92F852
:10AFA000501FDFF8F4B2029103F62C6353F81C1C17
:10AFB0000591009302F566790027ABF1140A029B14
:10AFC0009F4200F00381D9F8183093F8D680B8F189
:10AFD000000F40F0F080D3E93354D9F80460FFF754
:10AFE000A5FFA84B039093F8143701930122B240B8
:10AFF000019E9AF81C0104F100413939542E05EBE9
:10B00000410105EB400302D19E4EA6F81E0799426E
:10B0100040F211811E88164200F005815E881642BA
:10B0200000F017819E88164200F01581DE881642D6
:10B0300003F10803EBD1A3EB050C99424FEA6C0C2A
:10B0400040F2F980A4EB0C04452C28BF452403EB07
:10B050004404A34280F0F38000251E46AE462946F4
:10B0600018881040884218BF023314D15888104005
:10B07000814218BF04330ED198881040814218BF16
:10B08000063308D1D8881040814203F1080302D169
:10B090009C42E5D802E09C4200F2AE80BEF1110F66
:10B0A00040F2CD80DEF1150200F1C9807649039CA3
:10B0B000D1F8B8339C45DAF8203138BFC1F8B8C3AD
:10B0C000E01A002816DB03F5F42303F590739C4285
:10B0D00084BF23460533CAF82031D1F8B833052B95
:10B0E00086BF053BDBB200238AF81C314FF0FF33EB
:10B0F000C1F8B8333AB105FA02F2CEF1140E0125C7
:10B1000005FA0EF51543614BC5F3C43203EB820219
:10B11000D2F8201E05F01F0203EB8202D2F8202E87
:10B1200042EA0132C5F3441103EB8101C5F38425E2
:10B1300003EB8503D1F8201ED3F8203E42EA01122A
:10B1400042EA032282EA122383EA131303F00F0177
:10B15000DAF81C300F2903F1010317D1B2F5803F53
:10B1600014D2019954294FEA121205D14548B0F87A
:10B1700018170131A0F81817B2F5606FCAF81C3023
:10B180006BD0ABF80C20DDF810800FE0019A542A48
:10B1900005D13C49B1F818270132A1F81827CAF89F
:10B1A0001C30DAF818300133CAF81830059A0098C4
:10B1B00041460DF03DFD009B01375C33082F0093A5
:10B1C00009F120090BF1140B7FF4F9AE2B4B5A68EF
:10B1D0000123002A8AF818317FF7DBAE2C4BE421DB
:10B1E00001FB0232002183F8D610E4339342FAD1F6
:10B1F000012007B0BDE8F08F9E1B2649761001366E
:10B2000081FB0601A1EBE6710129B8BF01218D4048
:10B210008E440120013900FA01F10D4333F8021C7C
:10B220001E4611401CE70233A3EB050C99424FEA7E
:10B230006C0C3FF607AF10B101388AF81C01019B76
:10B24000542BB8D10F4AB2F81A370133A2F81A3783
:10B25000B1E70433EFE60633EDE60A4991F8293702
:10B2600003EB430301EBC3033B4493F839370D2B46
:10B2700087D180238BF81E3085E700BF281A002075
:10B28000183C0020202B00200000002040D705089B
:10B29000301A002056555555244D002070B51F4BCF
:10B2A00093F8282793F829379A4231D11C484568EA
:10B2B000002D10DD10F8086B002406B3037F012B6E
:10B2C00020D042691368013443F00103A54200F124
:10B2D000E4001360F1D1FFF729FE124BD3F85C4D67
:10B2E000002C0BDD03F63C5303EBC40419689A8869
:10B2F000C86808330243A342CA60F7D170BDFAF7A9
:10B30000ABFEDEE7002380F8D430FAF7A5FED8E7DD
:10B310004DF0F2FD0028C9D170BD00BF202B0020E8
:10B32000281A0020183C00202DE9F0470446006848
:10B33000217D026802238B401A4209D0E669A04DA4
:10B340004FF49A7202FB065292F8DC1511B1436079
:10B35000BDE8F0879B4F9C49D7F804C091F890173F
:10B360009A4FC7F824C1002900F0A480D2F8F8242D
:10B37000D2F810C01168DCF8002022F00102CCF8ED
:10B380000020CA6822F48072CA602A78002ADED0BF
:10B390004FF49A7306FB03F305EB030A8C49DAF8C2
:10B3A00018068C4A03EB0109C1B20839A2FB01213E
:10B3B000DAF8F8340909013120F0FF00D3F80080F1
:10B3C0004CF0B4F801238AF8DC35D7F82C31002B87
:10B3D00000F08280D8F800204FF49A7303FB0653E4
:10B3E00042F08002C8F80020D3F8D8254FF0FF3192
:10B3F000B2F5807FC8F82C1073D000F29680012A35
:10B4000000F0BA80102A22D1D8F82020D3F81416E0
:10B4100022F01002C8F82020D3F80C2642EA0100DE
:10B42000D8F81820D3F8101622F47F42014342EADC
:10B430001122C8F81820D3F80826D8F8203023F0B5
:10B44000A00343EA021343F01003C8F820304FF47E
:10B450009A7303FB06550023D5F81806C5F8B435D2
:10B46000C1B2A3F133330839A3FB013109094A46BC
:10B47000013120F0FF004CF017F8D5F818262068AD
:10B4800053686FF30F0343F016035360136843F0E0
:10B4900001031360D5F8F824B5F8FC341268D168BC
:10B4A0000B43D360474B227D5968C7F8281102230C
:10B4B00093404CE7D2F818C6DCF8001021F00101E7
:10B4C000CCF80010D2F8F814B2F8FCC40968CA68C5
:10B4D00022EA0C02CA6058E7FFF728FDC7F82C01E2
:10B4E00078E7D8F82020D3F8141622F48072C8F830
:10B4F0002020D3F80C2642EA0100D8F81C20D3F80B
:10B50000101622F0FF02014342EA1142C8F81C2043
:10B51000D3F80826D8F8203023F4206343EA022326
:10B5200043F48073C8F8203091E7B2F5805F8ED184
:10B53000D8F82020D3F8141622F48052C8F820201E
:10B54000D3F80C2642EA0100D8F81C20D3F81016D4
:10B5500022F47F42014342EA1122C8F81C20D3F8AA
:10B560000826D8F8203023F4204343EA023343F47A
:10B570008053C8F820306AE7D8F82020D3F8141692
:10B5800022F00102C8F82020D3F80C2642EA01007C
:10B59000D8F81820D3F8101622F0FF02014342EA2F
:10B5A0001142C8F81820D3F80826D8F8203023F024
:10B5B0000A03134343F00103C8F8203047E700BFF4
:10B5C000281A0020001000E0202B0020104D002041
:10B5D000D41F0020CDCCCCCC2DE9F04F934C237858
:10B5E00087B01BB9012007B0BDE8F08F904DD5F8AA
:10B5F000103E0493FFF79AFC94F8502F0092002A13
:10B6000000F00B818B4AD2F82C3104F59E64C31AEA
:10B6100002F1140B05F62C650193264600274FF026
:10B62000010AD84605940DE03046FCF78DFD009BDD
:10B630000137BB4206F59A7605F15C0508F114085E
:10B6400000F0B180019A002A04DBD6F8F030934272
:10B6500000F3CF80754A4FF49A7303FB072393F8E6
:10B66000DC3503F0FF01002BDED0B368B0891A6827
:10B67000D6F828315B681FFA83FCD368CCF1160C2E
:10B6800023EA0003BCF1070FD360CDD9694AD6F88D
:10B6900030B1D3690133D3610024CDE90281DBF8F5
:10B6A0000020B046A64601232646A9461CE05BF8CA
:10B6B0002350BEF1140F86F00106A5EB020228DC30
:10B6C00012F1080148BF02F117010911481E072AAB
:10B6D00004FA01F40AFA00F05ADD01339C4544EA09
:10B6E00000048E442A4614D39C45E0D8CEF11501BF
:10B6F000CEF1140000290AFA00F004FA01F108DD85
:10B70000002E45D001339C4540EA01044FF0150E50
:10B71000EAD2BEF1150F46460399DDF808804D4682
:10B720003AD14548C4F38423C4F3441200EB8303A5
:10B7300000EB8202D3F8A03ED2F8A02E1B0243EA0F
:10B74000021304F01F0200EB8202C4F3C434D2F8E7
:10B75000A02E00EB84041343D4F8A02E43EA023356
:10B7600083EA132282EA121202F00F020F2A13D187
:10B77000C3F30F134FF6FF7293420DD0B3F5606F12
:10B780003BD0A8F80C30049A28460DF051FA4BE74C
:10B790004646DDF808804D46264A93690133936199
:10B7A0000FB30021EFE72349059C0122002381F814
:10B7B0001821009AC1F82C314FF49A7303FB02430D
:10B7C000A26894F8B4101268D4F8E80011F0020FDF
:10B7D000116A04F59A7414BF41EA80010143A3423F
:10B7E0001162EDD1FEE659465822144851F0E2FBB1
:10B7F000D7E7002007B0BDE8F08F114A92F829077B
:10B8000000EB400002EBC0023A4492F839270D2ABF
:10B81000B7D1802388F81E30B5E7064B012283F8A4
:10B820001821009AC3F82C21DCE600BF281A00205A
:10B83000183C0020104D002040D70508D04D0020B6
:10B84000202B00202DE9F84F7D4CD4F85431002BEB
:10B8500000F0AA807B4FDFF8F8817B4D043307F6B8
:10B86000547698F9BC931868197B5FFA89F2022A1A
:10B8700000F29A804FF4987A0AFB097A0AF584520A
:10B880001278002A00F09080082900F28D8041F2A1
:10B8900068021AF802B041F269020BF1010C1AF8C1
:10B8A00002E00CF00F0CF4455FFA8BFB5DD009EB66
:10B8B000C90209EB42025A4407EB021E20F0604B1A
:10B8C000C00F8EF8741F1201CEF868BF8EF8750F86
:10B8D00049B1033317323244194413F8010F02F807
:10B8E000010F8B42F9D14FF4987303FB097341F2B6
